:100000000C942A000C94DB140C9447000C944700C9
:100010000C9447000C9447000C9447000C94470044
:100020000C9447000C9447000C9447000C94470034
:100030000C9447000C9447000C9447000C94470024
:100040000C9447000C9447000C9447000C94470014
:100050000C94470011241FBECFE5D4E0DEBFCDBF16
:1000600010E0A0E6B0E0E4E6FBE202C005900D92ED
:10007000A63FB107D9F710E0A6EFB0E001C01D928E
:10008000A73FB107E1F70E940F150C94B0150C942F
:100090000000EF92FF920F931F937B018C0120E0F1
:1000A00030E040E05FE40E94490388238CF0C801FF
:1000B000B70120E030E040E05FE40E94C1010E940F
:1000C000A9039B01AC01205030404040504806C07D
:1000D000C801B7010E94A9039B01AC01B901CA0183
:1000E0001F910F91FF90EF900895A0E0B0E0EBE733
:1000F000F0E00C947015DC012B01FA019C91923018
:1001000008F439C1EB018881823008F433C194309E
:1001100069F4843009F02FC111969C91119789815F
:10012000981709F428C1A8ECB0E025C1843009F47F
:1001300021C18230A9F4923009F01DC19A01AD01AC
:1001400088E0EA010990AE01E90109929E0181501F
:10015000C1F7E201898111969C918923818308C1AD
:10016000923009F407C112962D903C901397EB0141
:100170008A819B811496AD90BD90CD90DC901797AD
:10018000EC80FD800E811F819101281B390BB90184
:1001900037FF04C066277727621B730B6032710537
:1001A0000CF061C0121613066CF537014801062EDB
:1001B00004C096948794779467940A94D2F721E0C8
:1001C00030E040E050E004C0220F331F441F551FB1
:1001D0006A95D2F721503040404050402E213F21B7
:1001E00040235123211531054105510521F021E01E
:1001F00030E040E050E079018A01E628F72808293C
:1002000019293CC0232BD1F1260E371E350146019A
:10021000062E04C096948794779467940A94D2F734
:1002200021E030E040E050E004C0220F331F441FC3
:10023000551F6A95D2F721503040404050402A2146
:100240003B214C215D21211531054105510521F04E
:1002500021E030E040E050E059016A01A628B728CB
:10026000C828D9280BC0821593052CF01C01AA249C
:10027000BB24650103C0EE24FF24870111969C91E5
:10028000D20111968C91981709F445C0992339F041
:10029000A80197012A193B094C095D0906C0A6016E
:1002A00095012E193F09400B510B57FD08C01182D3
:1002B0003382228224833583468357831DC081E0A5
:1002C00081833382228288279927DC01821B930B4A
:1002D000A40BB50B84839583A683B7830DC0220F2F
:1002E000331F441F551F24833583468357838281E0
:1002F000938101979383828324813581468157813D
:10030000DA01C9010197A109B1098F5F9F4FAF4F72
:10031000BF4328F30BC0918333822282EA0CFB1C7B
:100320000C1D1D1DE482F5820683178383E0808304
:10033000248135814681578157FF1AC0C901AA27F8
:1003400097FDA095BA2F81709070A070B0705695EF
:10035000479537952795822B932BA42BB52B848318
:100360009583A683B7838281938101969383828349
:10037000DF0101C0D201CD01CDB7DEB7E2E10C94BF
:100380008C15A0E2B0E0E7ECF1E00C947C156983F9
:100390007A838B839C832D833E834F835887E9E048
:1003A000EE2EF12CEC0EFD1ECE010196B7010E943F
:1003B000D2048E010F5E1F4FCE010596B8010E9438
:1003C000D2048A8991E089278A8BC701B801AE01DE
:1003D000475E5F4F0E9475000E94FD03A096E6E015
:1003E0000C949815A0E2B0E0E8EFF1E00C947C15D5
:1003F00069837A838B839C832D833E834F835887C5
:10040000F9E0EF2EF12CEC0EFD1ECE010196B701A6
:100410000E94D2048E010F5E1F4FCE010596B801D7
:100420000E94D204C701B801AE01475E5F4F0E942F
:1004300075000E94FD03A096E6E00C949815A0E2DA
:10044000B0E0E5E2F2E00C94701569837A838B8367
:100450009C832D833E834F835887CE010196BE0136
:10046000675F7F4F0E94D204CE010596BE016F5E8A
:100470007F4F0E94D2049985923088F0898982301A
:10048000C8F0943019F4823051F404C0843029F457
:10049000923081F488EC90E0C6C0923049F420E0BC
:1004A0009A858A89981321E02A87CE010996BBC0D4
:1004B000823049F420E09A858A89981321E02A8BBA
:1004C000CE014196B0C02D843E844F8458886D88FB
:1004D0007E888F88988CEE24FF248701AA24BB2471
:1004E000650140E050E060E070E0E0E0F0E0C10174
:1004F00081709070892BE9F0E60CF71C081D191D1E
:100500009A01AB012A0D3B1D4C1D5D1D80E090E062
:10051000A0E0B0E0E614F7040805190520F481E036
:1005200090E0A0E0B0E0BA01A901480F591F6A1F8E
:100530007B1FAA0CBB1CCC1CDD1C97FE08C081E0F5
:1005400090E0A0E0B0E0A82AB92ACA2ADB2A3196B6
:10055000E032F10549F0660C771C881C991C569412
:10056000479437942794C3CFFA85EA892B893C892D
:100570008B859C85280F391F2E5F3F4F17C0CA01FE
:1005800081709070892B61F016950795F794E79428
:1005900080E090E0A0E0B0E8E82AF92A0A2B1B2BC3
:1005A00076956795579547952F5F3F4F77FDE7CF36
:1005B0000CC0440F551F661F771F17FD4160EE0CDE
:1005C000FF1C001F111F21503040403090E05907A0
:1005D00090E0690790E4790760F32B8F3C8FDB0193
:1005E000CA018F779070A070B07080349105A1051A
:1005F000B10561F447FD0AC0E114F10401051105DC
:1006000029F0405C5F4F6F4F7F4F40781A8EFE1786
:1006100011F081E08A8F4D8F5E8F6F8F78A383E01A
:10062000898FCE0149960E94FD03A096E2E10C94C9
:100630008C15A8E1B0E0EFE1F3E00C947C15698340
:100640007A838B839C832D833E834F83588789E0F5
:10065000E82EF12CEC0EFD1ECE010196B7010E9492
:10066000D2048E010F5E1F4FCE010596B8010E9485
:10067000D2048985823040F08989823028F0C70110
:10068000B8010E944A0501C08FEF6896E6E00C941D
:100690009815A8E1B0E0EFE4F3E00C947C156983D1
:1006A0007A838B839C832D833E834F83588789E095
:1006B000E82EF12CEC0EFD1ECE010196B7010E9432
:1006C000D2048E010F5E1F4FCE010596B8010E9425
:1006D000D2048985823040F08989823028F0C701B0
:1006E000B8010E944A0501C08FEF6896E6E00C94BD
:1006F0009815A8E1B0E0EFE7F3E00C947C1569836E
:100700007A838B839C832D833E834F83588789E034
:10071000E82EF12CEC0EFD1ECE010196B7010E94D1
:10072000D2048E010F5E1F4FCE010596B8010E94C4
:10073000D2048985823040F08989823028F0C7014F
:10074000B8010E944A0501C081E06896E6E00C9479
:100750009815ACE0B0E0EFEAF3E00C948015698303
:100760007A838B839C83CE010196BE016B5F7F4FA2
:100770000E94D2048D81823061F1823050F1843048
:1007800021F48E81882351F12EC02F81388537FDC9
:1007900020C06E812F3131051CF06623F9F023C093
:1007A0008EE190E0821B930B29853A854B855C8511
:1007B00004C056954795379527958A95D2F76623B5
:1007C000B1F050954095309521953F4F4F4F5F4F79
:1007D0000EC020E030E040E050E009C02FEF3FEFD6
:1007E0004FEF5FE704C020E030E040E050E8B9019F
:1007F000CA012C96E2E00C949C15DF92EF92FF92D6
:100800000F931F93FC01E480F58006811781D1804E
:100810008081823048F480E090E0A0E1B0E0E82AF6
:10082000F92A0A2B1B2BA5C0843009F49FC0823003
:1008300021F4EE24FF24870105C0E114F104010531
:10084000110519F4E0E0F0E096C0628173819FEF3A
:10085000623879070CF05BC022E83FEF261B370BAC
:100860002A3131052CF020E030E040E050E02AC091
:10087000B801A701022E04C0769567955795479554
:100880000A94D2F781E090E0A0E0B0E004C0880FC5
:10089000991FAA1FBB1F2A95D2F70197A109B10979
:1008A0008E219F21A023B1230097A105B10521F03E
:1008B00081E090E0A0E0B0E09A01AB01282B392B59
:1008C0004A2B5B2BDA01C9018F779070A070B07052
:1008D00080349105A105B10539F427FF09C0205CDA
:1008E0003F4F4F4F5F4F04C0215C3F4F4F4F5F4F13
:1008F000E0E0F0E02030A0E03A07A0E04A07A0E402
:100900005A0710F0E1E0F0E079018A0127C0603871
:10091000710564F5FB01E158FF4FD801C7018F77DE
:100920009070A070B07080349105A105B10539F4C4
:10093000E7FE0DC080E490E0A0E0B0E004C08FE3EB
:1009400090E0A0E0B0E0E80EF91E0A1F1B1F17FFA1
:1009500005C016950795F794E794319687E01695AC
:100960000795F794E7948A95D1F705C0EE24FF2404
:100970008701EFEFF0E06E2F679566276795902F60
:100980009F77D794DD24D7948E2F8695492F462BB9
:10099000582F5D29B701CA011F910F91FF90EF9069
:1009A000DF900895FC01DB01408151812281622F9B
:1009B0006F7770E0221F2227221F9381892F880FD3
:1009C000822B282F30E0991F9927991F11969C930D
:1009D000119721153105A9F54115510561057105DD
:1009E00011F482E037C082E89FEF13969C938E93B8
:1009F00012979A01AB0167E0220F331F441F551F66
:100A00006A95D1F783E08C930DC0220F331F441FEA
:100A1000551F12968D919C911397019713969C9355
:100A20008E931297203080E0380780E0480780E4FA
:100A3000580758F314962D933D934D935C93179755
:100A400008952F3F310579F4411551056105710570
:100A500019F484E08C93089564FF03C081E08C93C3
:100A600012C01C9210C02F57304013963C932E9307
:100A7000129783E08C9387E0440F551F661F771F02
:100A80008A95D1F7706414964D935D936D937C9322
:100A9000179708951F93DC01FB019C91923008F495
:100AA00047C08081823008F443C0943051F41196DD
:100AB0001C91843099F58181682F70E0611B710968
:100AC0003FC0843021F0923031F48230B9F181811D
:100AD000882389F12DC011961C9111978230F1F075
:100AE00081811817D9F412962D913C911397828128
:100AF00093818217930794F028173907BCF0149656
:100B00008D919D910D90BC91A02D248135814681C0
:100B10005781281739074A075B0718F4112341F05A
:100B20000AC082179307A407B50740F4112319F0F0
:100B300061E070E005C06FEF7FEF02C060E070E041
:100B4000CB011F910895DF93CF930F92CDB7DEB7FE
:100B5000198289818F7B898389818F7E89838981AD
:100B60008F7D89838981877F898389818260898359
:100B7000898184608983AAE2B0E0EAE2F0E08081C2
:100B80008B7F8C93AAE2B0E0EAE2F0E080818F777D
:100B90008C93AAE2B0E0EAE2F0E080818F7B8C9354
:100BA000AAE2B0E0EAE2F0E080818F7D8C93ABE2D4
:100BB000B0E0EBE2F0E080818D7F8C93E9E2F0E041
:100BC00084E68083AAE2B0E0EAE2F0E08081886017
:100BD0008C93AAE2B0E0EAE2F0E080818F7E8C9311
:100BE000E0E4F0E0898180830F90CF91DF91089558
:100BF000DF93CF9300D0CDB7DEB79A838983ECE241
:100C0000F0E089818083EBE2F0E080818295869537
:100C10008770882F90E0817090700097A1F3ABE20D
:100C2000B0E0EBE2F0E0808180628C930F900F9057
:100C3000CF91DF910895DF93CF9300D0CDB7DEB78A
:100C40001A821982EBE2F0E080818823DCF7ABE2C4
:100C5000B0E0EBE2F0E0808180688C93ECE2F0E0C1
:100C60008081882F90E09A83898389819A810F906F
:100C70000F90CF91DF910895DF93CF93CDB7DEB77B
:100C8000ADE2B0E0EDE2F0E080818F778C93ADE2F1
:100C9000B0E0EDE2F0E080818F7E8C93ADE2B0E0D9
:100CA000EDE2F0E0808180628C93ADE2B0E0EDE2B5
:100CB000F0E08081877F8C93ADE2B0E0EDE2F0E080
:100CC000808184608C93A7E3B0E0E7E3F0E080816B
:100CD00080648C93ADE2B0E0EDE2F0E0808180646E
:100CE0008C93CF91DF910895DF93CF930F92CDB77F
:100CF000DEB78983EFE2F0E089818083EEE2F0E005
:100D000080818823DCF7EFE2F0E080810F90CF91C3
:100D1000DF910895DF93CF93CDB7DEB7AFE5B0E0B5
:100D2000EFE5F0E0808180688C93CF91DF910895AA
:100D3000DF93CF93CDB7DEB7AFE5B0E0EFE5F0E0FE
:100D400080818F778C93CF91DF910895DF93CF933C
:100D500000D00F92CDB7DEB78983A5E5B0E0E5E519
:100D6000F0E080818C7F8C938981282F30E03B8359
:100D70002A838A819B818130910581F02A813B8180
:100D80002230310514F18A819B818230910571F006
:100D90002A813B812330310589F017C0A5E5B0E0F9
:100DA000E5E5F0E0808181608C930FC0A5E5B0E0BF
:100DB000E5E5F0E0808182608C9307C0A5E5B0E0B6
:100DC000E5E5F0E0808183608C93ABE5B0E0EBE596
:100DD000F0E0808180648C930F900F900F90CF9102
:100DE000DF910895DF93CF930F92CDB7DEB789835C
:100DF0000F90CF91DF910895DF93CF930F92CDB7EE
:100E0000DEB789838981823041F4A4E5B0E0E4E56E
:100E1000F0E080818F7B8C930AC08981833039F424
:100E2000A4E5B0E0E4E5F0E0808180648C93ABE57C
:100E3000B0E0EBE5F0E0808180628C930F90CF9181
:100E4000DF910895DF93CF93CDB7DEB727970FB625
:100E5000F894DEBF0FBECDBF89836A834B838A813E
:100E6000883008F0ECC08B81813009F070C0898136
:100E7000282F30E03F832E838E819F818230910521
:100E800051F12E813F812330310534F48E819F81D1
:100E90008130910561F0D3C02E813F81233031052F
:100EA00071F18E819F8184309105E9F1C8C0AAE378
:100EB000B0E0EAE3F0E08081482F8A81282F30E01B
:100EC00081E090E0022E02C0880F991F0A94E2F799
:100ED000842B8C93B4C0A7E3B0E0E7E3F0E080811B
:100EE000482F8A81282F30E081E090E0022E02C056
:100EF000880F991F0A94E2F7842B8C93A0C0A4E377
:100F0000B0E0E4E3F0E08081482F8A81282F30E0D0
:100F100081E090E0022E02C0880F991F0A94E2F748
:100F2000842B8C938CC0A1E3B0E0E1E3F0E08081FE
:100F3000482F8A81282F30E081E090E0022E02C005
:100F4000880F991F0A94E2F7842B8C9378C08B81C9
:100F5000882309F074C08981282F30E03D832C83D9
:100F60008C819D818230910561F12C813D812330FE
:100F7000310534F48C819D818130910569F05FC029
:100F80002C813D812330310589F18C819D81843014
:100F9000910509F440C053C0AAE3B0E0EAE3F0E0F1
:100FA0008081482F8A81282F30E081E090E0022E56
:100FB00002C0880F991F0A94E2F7809584238C93CE
:100FC0003EC0A7E3B0E0E7E3F0E08081482F8A81EC
:100FD000282F30E081E090E0022E02C0880F991F98
:100FE0000A94E2F7809584238C9329C0A4E3B0E0AF
:100FF000E4E3F0E08081482F8A81282F30E081E00F
:1010000090E0022E02C0880F991F0A94E2F78095A3
:1010100084238C9314C0A1E3B0E0E1E3F0E080818D
:10102000482F8A81282F30E081E090E0022E02C014
:10103000880F991F0A94E2F7809584238C93279652
:101040000FB6F894DEBF0FBECDBFCF91DF910895EC
:10105000DF93CF93CDB7DEB727970FB6F894DEBFF7
:101060000FBECDBF89836A834B838A81883008F0A5
:10107000ECC08B81813009F070C08981282F30E06D
:101080003F832E838E819F818230910551F12E8185
:101090003F812330310534F48E819F818130910569
:1010A00061F0D3C02E813F812330310571F18E81F3
:1010B0009F8184309105E9F1C8C0ABE3B0E0EBE378
:1010C000F0E08081482F8A81282F30E081E090E095
:1010D000022E02C0880F991F0A94E2F7842B8C938A
:1010E000B4C0A8E3B0E0E8E3F0E08081482F8A8153
:1010F000282F30E081E090E0022E02C0880F991F77
:101100000A94E2F7842B8C93A0C0A5E3B0E0E5E35A
:10111000F0E08081482F8A81282F30E081E090E044
:10112000022E02C0880F991F0A94E2F7842B8C9339
:101130008CC0A2E3B0E0E2E3F0E08081482F8A8136
:10114000282F30E081E090E0022E02C0880F991F26
:101150000A94E2F7842B8C9378C08B81882309F062
:1011600074C08981282F30E03D832C838C819D8140
:101170008230910561F12C813D812330310534F4B9
:101180008C819D818130910569F05FC02C813D810A
:101190002330310589F18C819D818430910509F4DA
:1011A00040C053C0ABE3B0E0EBE3F0E08081482FF8
:1011B0008A81282F30E081E090E0022E02C0880F63
:1011C000991F0A94E2F7809584238C933EC0A8E38C
:1011D000B0E0E8E3F0E08081482F8A81282F30E0FA
:1011E00081E090E0022E02C0880F991F0A94E2F776
:1011F000809584238C9329C0A5E3B0E0E5E3F0E07B
:101200008081482F8A81282F30E081E090E0022EF3
:1012100002C0880F991F0A94E2F7809584238C936B
:1012200014C0A2E3B0E0E2E3F0E08081482F8A81BD
:10123000282F30E081E090E0022E02C0880F991F35
:101240000A94E2F7809584238C9327960FB6F8943E
:10125000DEBF0FBECDBFCF91DF910895DF93CF9357
:1012600000D000D00F92CDB7DEB78A836B838B811D
:10127000883008F067C08A81282F30E03D832C83B6
:101280004C815D814230510541F18C819D818330DB
:10129000910534F42C813D812130310561F052C03B
:1012A0004C815D814330510551F18C819D818430A9
:1012B0009105B9F147C0E9E3F0E08081282F30E0E3
:1012C0008B81882F90E0A90102C0559547958A959A
:1012D000E2F7CA018170898335C0E6E3F0E08081DE
:1012E000282F30E08B81882F90E0A90102C055950E
:1012F00047958A95E2F7CA018170898323C0E3E3A9
:10130000F0E08081282F30E08B81882F90E0A901C8
:1013100002C0559547958A95E2F7CA018170898385
:1013200011C0E0E3F0E08081282F30E08B81882F2E
:1013300090E0A90102C0559547958A95E2F7CA0148
:101340008170898389810F900F900F900F900F907B
:10135000CF91DF910895DF93CF9300D000D0CDB728
:10136000DEB789836A838981282F30E03C832B8311
:101370008B819C8182309105D9F02B813C81233077
:10138000310534F48B819C818130910561F01EC060
:101390002B813C812330310581F08B819C8184300D
:1013A000910581F013C0EAE3F0E08A8180830EC0EA
:1013B000E7E3F0E08A81808309C0E4E3F0E08A811A
:1013C000808304C0E1E3F0E08A8180830F900F9076
:1013D0000F900F90CF91DF910895DF93CF9300D0BE
:1013E00000D0CDB7DEB789836A838981282F30E0AA
:1013F0003C832B838B819C8182309105D9F02B819A
:101400003C812330310534F48B819C8181309105FE
:1014100061F01EC02B813C812330310581F08B812E
:101420009C818430910581F013C0EBE3F0E08A8168
:1014300080830EC0E8E3F0E08A81808309C0E5E3A1
:10144000F0E08A81808304C0E2E3F0E08A81808357
:101450000F900F900F900F90CF91DF910895DF9331
:10146000CF9300D000D0CDB7DEB78A838A81282FF2
:1014700030E03C832B838B819C8182309105D9F0B5
:101480002B813C812330310534F48B819C81813068
:10149000910561F01EC02B813C812330310581F024
:1014A0008B819C818430910581F013C0E9E3F0E0E9
:1014B000808189830EC0E6E3F0E08081898309C0E2
:1014C000E3E3F0E08081898304C0E0E3F0E0808121
:1014D000898389810F900F900F900F90CF91DF91AA
:1014E0000895DF93CF93CDB7DEB7A6E2B0E0E6E292
:1014F000F0E08081877F8C93A6E2B0E0E6E2F0E046
:1015000080818F7D8C93A7E2B0E0E7E2F0E08081FC
:101510008F778C93A7E2B0E0E7E2F0E0808180640F
:101520008C93A7E2B0E0E7E2F0E080818F7D8C93BE
:10153000A6E2B0E0E6E2F0E0808181608C93A6E272
:10154000B0E0E6E2F0E0808182608C93A6E2B0E059
:10155000E6E2F0E080818B7F8C93A6E2B0E0E6E2E9
:10156000F0E0808180688C93CF91DF910895DF93C4
:10157000CF930F92CDB7DEB7898389818770898336
:10158000A7E2B0E0E7E2F0E090818981892B8C93BB
:10159000A6E2B0E0E6E2F0E0808180648C93E6E2CF
:1015A000F0E0808182958F70882F90E0817090703C
:1015B0000097A9F3A6E2B0E0E6E2F0E08081806166
:1015C0008C93E4E2F0E0808191810F90CF91DF91E4
:1015D0000895DF93CF930F92CDB7DEB789838981CA
:1015E0006FEF0E94AB090F90CF91DF910895DF93C9
:1015F000CF9300D0CDB7DEB789836A8389818A30E3
:1016000058F48981882F90E0FC01E551FF4F9081CB
:101610008A81692F0E94ED090F900F90CF91DF9181
:101620000895DF93CF9300D0CDB7DEB789836A8367
:1016300089816A8141E00E9422070F900F90CF912B
:10164000DF910895DF93CF9300D0CDB7DEB78983C4
:101650006A8389816A8141E00E9428080F900F9077
:10166000CF91DF910895DF93CF9300D0CDB7DEB750
:1016700089836A8389816A8140E00E9428080F90EB
:101680000F90CF91DF9108950F931F93DF93CF9326
:10169000CDB7DEB7C654D0400FB6F894DEBF0FBE4C
:1016A000CDBF83E060E041E00E94220783E061E07B
:1016B00041E00E94220783E062E041E00E942207AD
:1016C00082E06FEF0E94AB09FE01ED5BFF4F80E00F
:1016D00090E0ACE0B2E480839183A283B3838E0177
:1016E000015C1F4FFE01ED5BFF4F608171818281C4
:1016F000938120E030E04AE753E40E941F02DC01BE
:10170000CB01F80180839183A283B383FE01FF960E
:10171000608171818281938120E030E040E85FE365
:101720000E94790388232CF481E090E09EAF8DAF76
:1017300046C0FE01FF96608171818281938120E025
:101740003FEF4FE757E40E941903181664F5FE01B6
:10175000ED5BFF4F608171818281938120E030E0F9
:1017600040E251E40E941F02DC01CB01BC01CD012B
:101770000E944900DC01CB019EAF8DAF0FC089E113
:1017800090E09CAF8BAF8BAD9CAD0197F1F79CAF18
:101790008BAF8DAD9EAD01979EAF8DAF8DAD9EADE4
:1017A000009769F716C0FE01FF9660817181828102
:1017B00093810E944900DC01CB019EAF8DAF8DADBE
:1017C0009EAD9AAF89AF89AD9AAD0197F1F79AAF07
:1017D00089AF88E30E94C90D80E090E0A0E8BFE3F4
:1017E0008DAB9EABAFABB8AF6DA97EA98FA998ADFD
:1017F00020E030E04AE753E40E941F02DC01CB0105
:1018000089AB9AABABABBCAB69A97AA98BA99CA9F4
:1018100020E030E040E85FE30E94790388232CF465
:1018200081E090E098AB8FA73FC069A97AA98BA906
:101830009CA920E03FEF4FE757E40E9419031816D8
:101840004CF56DA97EA98FA998AD20E030E040E26B
:1018500051E40E941F02DC01CB01BC01CD010E94BA
:101860004900DC01CB0198AB8FA70FC089E190E064
:101870009EA78DA78DA59EA50197F1F79EA78DA781
:101880008FA598A9019798AB8FA78FA598A90097C6
:1018900069F714C069A97AA98BA99CA90E9449007B
:1018A000DC01CB0198AB8FA78FA598A99CA78BA72C
:1018B0008BA59CA50197F1F79CA78BA78EE00E94B2
:1018C000C90D80E090E0A0E8BFE38FA398A7A9A787
:1018D000BAA76FA178A589A59AA520E030E04AE7CC
:1018E00053E40E941F02DC01CB018BA39CA3ADA398
:1018F000BEA36BA17CA18DA19EA120E030E040E8B9
:101900005FE30E94790388232CF481E090E09AA39E
:1019100089A33FC06BA17CA18DA19EA120E03FEFD8
:101920004FE757E40E94190318164CF56FA178A5EC
:1019300089A59AA520E030E040E251E40E941F0210
:10194000DC01CB01BC01CD010E944900DC01CB01CF
:101950009AA389A30FC089E190E098A38F8F8F8D00
:1019600098A10197F1F798A38F8F89A19AA1019768
:101970009AA389A389A19AA1009769F714C06BA1C2
:101980007CA18DA19EA10E944900DC01CB019AA3FC
:1019900089A389A19AA19E8F8D8F8D8D9E8D019790
:1019A000F1F79E8F8D8F81E00E94C90D80E090E05D
:1019B000A0E0B0E4898F9A8FAB8FBC8F698D7A8D50
:1019C0008B8D9C8D20E030E04AE753E40E941F029B
:1019D000DC01CB018D8B9E8BAF8BB88F6D897E899F
:1019E0008F89988D20E030E040E85FE30E94790322
:1019F00088232CF481E090E09C8B8B8B3FC06D8919
:101A00007E898F89988D20E03FEF4FE757E40E9451
:101A1000190318164CF5698D7A8D8B8D9C8D20E0FD
:101A200030E040E251E40E941F02DC01CB01BC0126
:101A3000CD010E944900DC01CB019C8B8B8B0FC038
:101A400089E190E09A8B898B89899A890197F1F7CE
:101A50009A8B898B8B899C8901979C8B8B8B8B892B
:101A60009C89009769F714C06D897E898F89988D4C
:101A70000E944900DC01CB019C8B8B8B8B899C895C
:101A8000988B8F878F8598890197F1F7988B8F872F
:101A900086E00E94C90D80E090E0A0E8BFE38B875C
:101AA0009C87AD87BE876B857C858D859E8520E074
:101AB00030E04AE753E40E941F02DC01CB018F8330
:101AC0009887A987BA876F81788589859A8520E06C
:101AD00030E040E85FE30E94790388232CF481E042
:101AE00090E09E838D833FC06F81788589859A853C
:101AF00020E03FEF4FE757E40E94190318164CF51A
:101B00006B857C858D859E8520E030E040E251E448
:101B10000E941F02DC01CB01BC01CD010E944900E3
:101B2000DC01CB019E838D830FC089E190E09C8313
:101B30008B838B819C810197F1F79C838B838D81B3
:101B40009E8101979E838D838D819E81009769F789
:101B500014C06F81788589859A850E944900DC01CF
:101B6000CB019E838D838D819E819A838983898118
:101B70009A810197F1F79A838983CA5BDF4F0FB689
:101B8000F894DEBF0FBECDBFCF91DF911F910F91B3
:101B90000895DF93CF930F92CDB7DEB7898383E0AB
:101BA00060E040E00E94280883E061E040E00E949D
:101BB000280883E062E041E00E94280882E0698111
:101BC0000E94ED0983E062E040E00E9428080F9047
:101BD000CF91DF910895DF93CF930F92CDB7DEB70A
:101BE000898383E060E041E00E94280883E061E0AF
:101BF00040E00E94280883E062E041E00E9428085B
:101C000082E069810E94ED0983E062E040E00E9489
:101C100028080F90CF91DF910895DF93CF9300D0E4
:101C20000F92CDB7DEB79B838A8319828A819B810D
:101C30000097D1F00EC08981282F30E08A819B81E6
:101C4000FC01E20FF31F80810E94EB0D89818F5F01
:101C500089838981282F30E08A819B81FC01E20FF2
:101C6000F31F8081882339F70F900F900F90CF9149
:101C7000DF9108950F931F93DF93CF93CDB7DEB716
:101C800060970FB6F894DEBF0FBECDBF6D877E871D
:101C90008F87988B8D859E85AF85B8890097A10524
:101CA000B10521F480E30E94EB0D4AC019822EC0D9
:101CB0008981082F10E08D859E85AF85B8892AE03F
:101CC00030E040E050E0BC01CD010E944E15DC0147
:101CD000CB01282F205DCE010296FC01E00FF11F01
:101CE000208389818F5F89838D859E85AF85B889A3
:101CF0002AE030E040E050E0BC01CD010E944E15EA
:101D0000DA01C9018D879E87AF87B88B8D859E8547
:101D1000AF85B8890097A105B10551F60EC089813C
:101D2000815089838981282F30E0CE010296FC0101
:101D3000E20FF31F80810E94EB0D8981882379F7E0
:101D400060960FB6F894DEBF0FBECDBFCF91DF9186
:101D50001F910F910895DF93CF9300D000D0CDB79E
:101D6000DEB79B838A836C838C81883010F58C81ED
:101D7000882F90E00896880F991F880F991F880F69
:101D8000991F0E94C90D19820EC08981282F30E049
:101D90008A819B81FC01E20FF31F80810E94EB0D81
:101DA00089818F5F89838981883078F380E80E94F8
:101DB000C90D0F900F900F900F90CF91DF91089564
:101DC000DF93CF93CDB7DEB763970FB6F894DEBF3E
:101DD0000FBECDBF888B698B1F868889282F30E086
:101DE0003B8B2A8B8A899B898130910531F02A8926
:101DF0003B892230310521F006C089898F8703C0D5
:101E00008989805C8F878F8580580E94C90D80E00A
:101E100090E0A0E8BFE38B879C87AD87BE876B858A
:101E20007C858D859E8520E030E04AE753E40E9462
:101E30001F02DC01CB018F839887A987BA876F8146
:101E4000788589859A8520E030E040E85FE30E944C
:101E5000790388232CF481E090E09E838D833FC03A
:101E60006F81788589859A8520E03FEF4FE757E4B9
:101E70000E94190318164CF56B857C858D859E850F
:101E800020E030E040E251E40E941F02DC01CB017F
:101E9000BC01CD010E944900DC01CB019E838D83F2
:101EA0000FC089E190E09C838B838B819C8101979B
:101EB000F1F79C838B838D819E8101979E838D8317
:101EC0008D819E81009769F714C06F81788589851F
:101ED0009A850E944900DC01CB019E838D838D8110
:101EE0009E819A83898389819A810197F1F79A83E8
:101EF000898363960FB6F894DEBF0FBECDBFCF9136
:101F0000DF910895DF93CF93CDB7DEB781E060E036
:101F100040E00E94220781E061E040E00E94220749
:101F200081E062E040E00E94220781E060E041E061
:101F30000E94280881E061E041E00E94280881E0D9
:101F400062E041E00E94280881E063E041E00E94F5
:101F5000220781E064E041E00E94220781E065E021
:101F600041E00E94220781E063E041E00E942808EE
:101F700081E064E041E00E94280881E065E041E002
:101F80000E942808CF91DF910895DF93CF93CDB7BA
:101F9000DEB762970FB6F894DEBF0FBECDBF8FEFEE
:101FA000898B188AE1C08889882F90E0FC01E05372
:101FB000FF4F20818889882F90E0FC01ED52FF4F70
:101FC0009081822F692F40E00E9428081F86B2C0AE
:101FD0008F85882F90E0FC01EA52FF4F20818F858A
:101FE000882F90E0FC01E752FF4F9081822F692FEC
:101FF0000E942E09898B8989882309F098C08889D5
:10200000882F90E0FC01E053FF4F20818889882FC2
:1020100090E0FC01ED52FF4F9081822F692F41E04B
:102020000E94280880E090E0A6E1B3E48B879C87BB
:10203000AD87BE876B857C858D859E8520E030E0F1
:102040004AE753E40E941F02DC01CB018F8398878B
:10205000A987BA876F81788589859A8520E030E0E5
:1020600040E85FE30E94790388232CF481E090E04C
:102070009E838D833FC06F81788589859A8520E016
:102080003FEF4FE757E40E94190318164CF56B8594
:102090007C858D859E8520E030E040E251E40E9401
:1020A0001F02DC01CB01BC01CD010E944900DC0113
:1020B000CB019E838D830FC089E190E09C838B834D
:1020C0008B819C810197F1F79C838B838D819E810D
:1020D00001979E838D838D819E81009769F714C03F
:1020E0006F81788589859A850E944900DC01CB0142
:1020F0009E838D838D819E819A83898389819A8134
:102100000197F1F79A8389838F85282F30E088899A
:10211000482F50E0C901880F991F820F931F840F29
:10212000951FFC01E452FF4F80818A8B23C08F856D
:102130008F5F8F878F85833008F44ACF8889882FF7
:1021400090E0FC01E053FF4F20818889882F90E0C8
:10215000FC01ED52FF4F9081822F692F41E00E94D8
:10216000280888898F5F888B8889833008F41BCF83
:102170008FEF8A8B8A8962960FB6F894DEBF0FBE06
:10218000CDBFCF91DF910895DF93CF9300D0CDB72E
:10219000DEB789836A8389816A8140E00E942207D1
:1021A00089816A8141E00E9428080F900F90CF91A9
:1021B000DF910895DF93CF9300D00F92CDB7DEB7B4
:1021C00089836A8389816A810E942E091B82882300
:1021D00011F481E08B838B810F900F900F90CF9142
:1021E000DF910895DF93CF93CDB7DEB72E970FB66B
:1021F000F894DEBF0FBECDBF0E94440B0E94820F39
:102200000E94A30584E064E00E94110B84E065E075
:102210000E94110B84E063E040E00E94220782E00C
:102220000E94A6060E948A0680E690E00E940D0E9B
:1022300080E090E0AAE7B4E48B879C87AD87BE87F7
:102240006B857C858D859E8520E030E04AE753E4F0
:102250000E941F02DC01CB018F839887A987BA8770
:102260006F81788589859A8520E030E040E85FE3DA
:102270000E94790388232CF481E090E09E838D8373
:102280003FC06F81788589859A8520E03FEF4FE7D1
:1022900057E40E94190318164CF56B857C858D85D3
:1022A0009E8520E030E040E251E40E941F02DC0104
:1022B000CB01BC01CD010E944900DC01CB019E8312
:1022C0008D830FC089E190E09C838B838B819C81FF
:1022D0000197F1F79C838B838D819E8101979E836B
:1022E0008D838D819E81009769F714C06F817885F9
:1022F00089859A850E944900DC01CB019E838D83EC
:102300008D819E819A83898389819A810197F1F7D2
:102310009A8389832E960FB6F894DEBF0FBECDBF89
:10232000CF91DF910895DF93CF93CDB7DEB762975A
:102330000FB6F894DEBF0FBECDBF9A8B898B188A7B
:1023400089C00E94C50F8F878F858F3F09F482C097
:102350008889282F30E089899A89FC01E20FF31FD0
:102360008F8580838AE20E94EB0D88898F5F888B3E
:1023700080E090E0A8E4B3E48B879C87AD87BE87BC
:102380006B857C858D859E8520E030E04AE753E4AF
:102390000E941F02DC01CB018F839887A987BA872F
:1023A0006F81788589859A8520E030E040E85FE399
:1023B0000E94790388232CF481E090E09E838D8332
:1023C0003FC06F81788589859A8520E03FEF4FE790
:1023D00057E40E94190318164CF56B857C858D8592
:1023E0009E8520E030E040E251E40E941F02DC01C3
:1023F000CB01BC01CD010E944900DC01CB019E83D1
:102400008D830FC089E190E09C838B838B819C81BD
:102410000197F1F79C838B838D819E8101979E8329
:102420008D838D819E81009769F714C06F817885B7
:1024300089859A850E944900DC01CB019E838D83AA
:102440008D819E819A83898389819A810197F1F791
:102450009A8389838889843008F473CF8889282FE8
:1024600030E089899A89FC01E20FF31F108262969D
:102470000FB6F894DEBF0FBECDBFCF91DF910895A8
:10248000DF93CF9300D00F92CDB7DEB79A838983C5
:1024900089819A8126EE30E0B9010E94A7151B823E
:1024A000009711F481E08B838B810F900F900F9038
:1024B000CF91DF910895DF93CF93CDB7DEB72E97FD
:1024C0000FB6F894DEBF0FBECDBF81E00E94C90DEC
:1024D00081E061E00E94E00E8DE690E00E940D0E2A
:1024E00084E064E00E94220B8DE690E00E94F014EC
:1024F00080E090E4ACE9B5E48B879C87AD87BE872C
:102500006B857C858D859E8520E030E04AE753E42D
:102510000E941F02DC01CB018F839887A987BA87AD
:102520006F81788589859A8520E030E040E85FE317
:102530000E94790388232CF481E090E09E838D83B0
:102540003FC06F81788589859A8520E03FEF4FE70E
:1025500057E40E94190318164CF56B857C858D8510
:102560009E8520E030E040E251E40E941F02DC0141
:10257000CB01BC01CD010E944900DC01CB019E834F
:102580008D830FC089E190E09C838B838B819C813C
:102590000197F1F79C838B838D819E8101979E83A8
:1025A0008D838D819E81009769F714C06F81788536
:1025B00089859A850E944900DC01CB019E838D8329
:1025C0008D819E819A83898389819A810197F1F710
:1025D0009A83898384E064E00E94330B2E960FB6C1
:1025E000F894DEBF0FBECDBFCF91DF910895DF938A
:1025F000CF93CDB7DEB72E970FB6F894DEBF0FBEE0
:10260000CDBF81E00E94C90D81E061E00E94E00E33
:1026100080E890E00E940D0E84E065E00E94220BAD
:1026200080E890E00E94F01480E090E0AAEFB4E42B
:102630008B879C87AD87BE876B857C858D859E85C6
:1026400020E030E04AE753E40E941F02DC01CB01A6
:102650008F839887A987BA876F81788589859A85BE
:1026600020E030E040E85FE30E94790388232CF407
:1026700081E090E09E838D833FC06F81788589855E
:102680009A8520E03FEF4FE757E40E9419031816A0
:102690004CF56B857C858D859E8520E030E040E2A1
:1026A00051E40E941F02DC01CB01BC01CD010E945C
:1026B0004900DC01CB019E838D830FC089E190E04E
:1026C0009C838B838B819C810197F1F79C838B8307
:1026D0008D819E8101979E838D838D819E81009740
:1026E00069F714C06F81788589859A850E944900B1
:1026F000DC01CB019E838D838D819E819A838983AA
:1027000089819A810197F1F79A83898384E065E052
:102710000E94330B2E960FB6F894DEBF0FBECDBFCE
:10272000CF91DF910895DF93CF93CDB7DEB72E978A
:102730000FB6F894DEBF0FBECDBF81E00E94C90D79
:1027400081E061E00E94E00E8EE890E00E940D0EB4
:102750008EE890E00E94F01484E065E00E94220B75
:1027600080E090E4ACE1B6E48B879C87AD87BE87C0
:102770006B857C858D859E8520E030E04AE753E4BB
:102780000E941F02DC01CB018F839887A987BA873B
:102790006F81788589859A8520E030E040E85FE3A5
:1027A0000E94790388232CF481E090E09E838D833E
:1027B0003FC06F81788589859A8520E03FEF4FE79C
:1027C00057E40E94190318164CF56B857C858D859E
:1027D0009E8520E030E040E251E40E941F02DC01CF
:1027E000CB01BC01CD010E944900DC01CB019E83DD
:1027F0008D830FC089E190E09C838B838B819C81CA
:102800000197F1F79C838B838D819E8101979E8335
:102810008D838D819E81009769F714C06F817885C3
:1028200089859A850E944900DC01CB019E838D83B6
:102830008D819E819A83898389819A810197F1F79D
:102840009A83898384E065E00E94330B2E960FB64D
:10285000F894DEBF0FBECDBFCF91DF910895DF9317
:10286000CF93CDB7DEB72E970FB6F894DEBF0FBE6D
:10287000CDBF81E00E94C90D81E061E00E94E00EC1
:102880008CE990E00E940D0E84E063E00E942E0926
:102890008823D1F381E00E94C90D81E061E00E94AC
:1028A000E00E8BEA90E00E940D0E80E090E0AAEF2F
:1028B000B4E48B879C87AD87BE876B857C858D85CF
:1028C0009E8520E030E04AE753E40E941F02DC01CD
:1028D000CB018F839887A987BA876F81788589858F
:1028E0009A8520E030E040E85FE30E947903882386
:1028F0002CF481E090E09E838D833FC06F817885CA
:1029000089859A8520E03FEF4FE757E40E9419033D
:1029100018164CF56B857C858D859E8520E030E012
:1029200040E251E40E941F02DC01CB01BC01CD0159
:102930000E944900DC01CB019E838D830FC089E199
:1029400090E09C838B838B819C810197F1F79C8322
:102950008B838D819E8101979E838D838D819E8146
:10296000009769F714C06F81788589859A850E94E0
:102970004900DC01CB019E838D838D819E819A83EA
:10298000898389819A810197F1F79A83898381E00C
:102990000E94C90D81E061E00E94E00E80E690E0B7
:1029A0000E940D0E2E960FB6F894DEBF0FBECDBF5F
:1029B000CF91DF9108951F920F920FB60F921124BD
:1029C0008F93DF93CF93CDB7DEB781E08093E5009F
:1029D000CF91DF918F910F900FBE0F901F901895A0
:1029E000DF93CF9300D0CDB7DEB79A8389830DC034
:1029F000E981FA818081282F30E089819A810196CE
:102A00009A838983C9010E94F805E981FA8180814E
:102A1000882371F70F900F90CF91DF910895DF9386
:102A2000CF9300D000D00F92CDB7DEB70E94F21046
:102A30008091E5008823E1F31092E50081E00E9497
:102A4000C90D81E061E00E94E00E88EB90E00E94F9
:102A50000D0E82E061E00E94E00ECE0101960E9420
:102A60009311CE0101960E944012882329F00E9402
:102A70005B121092F600DCCF8091F6008F5F80939E
:102A8000F6000E94F7128091F600833088F20E94CF
:102A900093130E942F141092F600CACFA1E21A2EAF
:102AA000AA1BBB1BFD010DC0AA1FBB1FEE1FFF1FF2
:102AB000A217B307E407F50720F0A21BB30BE40B42
:102AC000F50B661F771F881F991F1A9469F7609589
:102AD0007095809590959B01AC01BD01CF01089543
:102AE0002F923F924F925F926F927F928F929F921E
:102AF000AF92BF92CF92DF92EF92FF920F931F930C
:102B0000CF93DF93CDB7DEB7CA1BDB0B0FB6F894BC
:102B1000DEBF0FBECDBF09942A88398848885F84FC
:102B20006E847D848C849B84AA84B984C884DF806D
:102B3000EE80FD800C811B81AA81B981CE0FD11D51
:102B40000FB6F894DEBF0FBECDBFED010895FB01B7
:102B5000DC018D91019080190110D9F3990B089532
:042B6000F894FFCF17
:102B640053797374656D20526561647900416363C0
:102B74006573732053756363657366756C6C790054
:102B84004163636573732044656E696564005379BA
:102B94007374656D204C6F636B6564005761697471
:102BA4002041646D696E2042746E005379737465BC
:102BB4006D20526573657400456E746572205061B2
:102BC4007373776F72643A00000000000000000025
:102BD4000101010304050101010001023132333412
:102BE40035363738390131323334003F065B4F66AE
:062BF4006D7D077F6F00FC
:00000001FF
